:10000000B8C2ECC2D1C2D0C2CFC2CEC2CDC2CCC265
:10001000CBC2CAC2C9C21EC934C9C6C2C5C2C4C2C3
:10002000C3C2C2C2C1C2C0C2BFC2BEC2BDC2BCC2C4
:10003000BBC2BAC205010904A1010901A1008501E1
:10004000093009311500250F750495028102093226
:10005000093309340935150026FF00750895048118
:100060000205091901291015002501750195108156
:1000700002C0050F0992A1028502099F09A009A4E7
:1000800009A509A61500250135004501750195054D
:10009000810295038103099415002501350045016E
:1000A0007501950181020922150125283501452890
:1000B000750795018102C00921A102850109221558
:1000C000012528350145287508950191020925A1CA
:1000D000020926092709300931093209330934098F
:1000E000400941094209430928250C1501350145FC
:1000F0000C750895019100C009500954095115006B
:1001000026FF7F350046FF7F66031055FD7510956D
:1001100003910255006600000952150026FF0035C4
:10012000004610277508950191020953150125080D
:10013000350145087508950191020955A10205018F
:100140000930093115002501750195029102C0059C
:100150000F095695019102950591030957A1020BCC
:1001600001000A000B02000A0066140055FE15008B
:1001700026FF00350047A08C00006600007508953A
:100180000291025500660000C0050F09A766031022
:1001900055FD150026FF7F350046FF7F7510950140
:1001A00091026600005500C0050F095AA1028502A0
:1001B0000922150125283501452875089501910268
:1001C000095B095D150026FF0035004610279502E2
:1001D0009102095C095E66031055FD26FF7F46FF0C
:1001E0007F7510910245006600005500C0095FA1AF
:1001F0000285030922150125283501452875089532
:10020000019102092315002501350045017504956A
:100210000191020958A1020B01000A000B02000A19
:1002200000750295029102C01580257F36F0D846F0
:100230001027096075089501910236F0D8461027FD
:100240000961096295029102150026FF00350046FA
:100250001027096309647508950291020965461023
:100260002795019102C0096EA1028504092215019A
:10027000252835014528750895019102097015005A
:1002800026FF003500461027750895019102096F79
:100290001580257F36F0D846102795019102097107
:1002A00066140055FE150026FF00350047A08C009F
:1002B000009102097226FF7F46FF7F66031055FDFD
:1002C0007510950191026600005500C00973A102E6
:1002D0008505092215012528350145287508950150
:1002E000910209701601FF26FF0036F0D84610274C
:1002F000751095019102C00974A1028506092215A5
:1003000001252835014528750895019102097509CF
:10031000761580257F36F0D846102775089502910E
:1003200002C00968A10285070922150125283501A7
:100330004528750895019102096C1500261027358E
:100340000046102775109501910209691581257FD6
:10035000350046FF007508950C920201C00966A1A0
:100360000285080501093009311581257F350046D0
:10037000FF00750895029102C0050F0977A102855B
:100380000A0922150125283501452875089501918E
:10039000020978A1020979097A097B1501250375FB
:1003A0000895019100C0097C150026FF0035004624
:1003B000FF009102C00990A102850B092225281592
:1003C0000135014528750895019102C00996A102E1
:1003D000850C099709980999099A099B099C1501A7
:1003E0002506750895019100C0097DA102850D09BA
:1003F0007E150026FF0035004610277508950191EF
:1004000002C0096BA102850E0922150125283501BC
:100410004528750895019102096D150026FF0035E4
:100420000046FF00750895019102095166031055B9
:10043000FD150026FF7F350046FF7F751095019161
:10044000025500660000C009ABA10285010925A183
:10045000020926092709300931093209330934090B
:10046000400941094209430928250C150135014578
:100470000C75089501B100C00501093B150026FF68
:1004800001350046FF01750A9501B1027506B101FB
:10049000C0050F0989A10285020922252815013509
:1004A00001452875089501B102098BA102098C0943
:1004B0008D098E250315013501450375089501B198
:1004C00000C009AC150027FFFF0000350047FFFF03
:1004D000000075109501B100C0097FA102850309D4
:1004E00080751095011500350027FFFF000047FFBC
:1004F000FF0000B102098326FF0046FF0075089542
:1005000001B10209A909AA75019502150025013555
:10051000004501B10275069501B103C0C009022270
:100520000001010080FA0904000001030000000935
:10053000210101000122E9040705810308002012BE
:1005400001100100000008C016DB050001010200D7
:10055000010E035000530058005500530042000E96
:10056000035000690074006D0061006E000403090F
:10057000040011241FBECFEFD4E0DEBFCDBF11E0D9
:10058000A0E0B1E0E0EDF3E102C005900D92A231F0
:10059000B107D9F721E0A2E1B1E001C01D92A53673
:1005A000B207E1F785D612C72BCDA82FB92F80E06F
:1005B00090E041E050EA609530E009C02D9182273B
:1005C0009795879510F084279527305EC8F36F5F65
:1005D000A8F30895EADF8D939D930895CF93CFB745
:1005E000CF93DF93C3954C9BE9F74C9B11C04C9B79
:1005F0000FC04C9B0DC04C9B0BC04C9B09C04C9B2F
:1006000007C04C9B05C04C9B03C04C9B01C083C0E2
:100610006F93C0913E01DD27CB5BDE4F2F9320E42B
:1006200000C065E04C9B03C02F916F91DECF0F930C
:100630001F934F9345E55F9355E53F933BE014E0EF
:1006400009B104712EC06A95C9F03150D8F109B1D1
:10065000047101130BC008942795299320E4555584
:1006600000F46A9569F701E069B10BC0102F66E0EC
:100670002695299320E4555518F3E2CF0FEF69B181
:100680000000162F455500F0404066E01471003020
:10069000E2F221F0000009B1047103C009B1047154
:1006A000A9F0011309C00894279568F200C06A9563
:1006B000A9F700E069B1E5CF102F66E0269528F292
:1006C0000000ECCF11E01CBB002719C03B50319556
:1006D000C31BD04011E01CBB0881033C09F10B3463
:1006E000F9F020913C011981110F1213EDCF4A81CD
:1006F000441F093651F10D3211F0013E29F70093E4
:1007000043013F915F914F911F910F912F916F91F5
:10071000CCB3C0FD67CFDF91CF91CFBFCF911895FC
:1007200020914301222369F310914101112381F5A6
:10073000343082F13093410120933D0110913E010C
:100740003BE0311B30933E0125C000914101013057
:10075000FCF40AE54F7049F43091020134FD1BC0EE
:1007600000930201C5E2D1E01AC03091300134FD9E
:1007700012C000933001C1E3D1E011C0052710E0A1
:1007800000C00BB919C0052710E0221F00C01DC012
:100790004AE502C032ED432FC4E1D0E032E01AB1A5
:1007A00014615C9A0BB11AB954E120E869E420FFA6
:1007B00005270BB92795179500C000001C3FF0F6E0
:1007C0006695A8F7A1F720FF05270BB92795179580
:1007D00000001C3FC0F629913A9541F70B7E10911D
:1007E0004201110F0BB9C651D04011F010933C01DA
:1007F00011E01CBB00611AB11B7E402F4B7E55E0FF
:100800005A95F1F70BB91AB94BB97BCF2A9887E8FB
:1008100093E10197F1F700C0000081E015D383EF69
:1008200091E00197F1F700C0000083E40DD383EF5E
:1008300091E00197F1F700C0000080E005D383EF5D
:1008400091E00197F1F700C0000081E0FDD283EF55
:1008500091E00197F1F700C0000080E0F5D283EF4E
:1008600091E00197F1F700C000002A9A8FE39CE91C
:100870000197F1F700C000002A9887E893E10197FB
:10088000F1F700C0000081E0DFD283EF91E0019733
:10089000F1F700C0000084E4D7D283EF91E0019724
:1008A000F1F700C0000080E0CFD283EF91E0019724
:1008B000F1F700C0000081E0C7D283EF91E001971B
:1008C000F1F700C0000083E0BFD283EF91E0019711
:1008D000F1F700C0000080E0B7D283EF91E001970C
:1008E000F1F700C0000080E0AFD283EF91E0019704
:1008F000F1F700C0000080E0A7D283EF91E00197FC
:10090000F1F700C0000080E09FD283EF91E00197F3
:10091000F1F700C000002A9A8FE39CE90197F1F7F4
:1009200000C000002A9887E893E10197F1F700C022
:10093000000081E089D283EF91E00197F1F700C0D8
:1009400000008DE481D283EF91E00197F1F700C0C0
:10095000000080E079D283EF91E00197F1F700C0C9
:10096000000080E071D283EF91E00197F1F700C0C1
:10097000000081E069D283EF91E00197F1F700C0B8
:1009800000008FEF61D283EF91E00197F1F700C093
:1009900000008FEF59D283EF91E00197F1F700C08B
:1009A00000008FEF51D283EF91E00197F1F700C083
:1009B00000008FEF49D283EF91E00197F1F700C07B
:1009C00000002A9A8FE39CE90197F1F700C000002C
:1009D0002A9887E893E10197F1F700C0000081E0D1
:1009E00033D283EF91E00197F1F700C0000083E478
:1009F0002BD283EF91E00197F1F700C0000080E077
:100A000023D283EF91E00197F1F700C0000080E06E
:100A10001BD283EF91E00197F1F700C000008AE557
:100A200013D283EF91E00197F1F700C000008AE54F
:100A30000BD283EF91E00197F1F700C000008AE547
:100A400003D283EF91E00197F1F700C000008AE53F
:100A5000FBD183EF91E00197F1F700C000008AE538
:100A6000F3D183EF91E00197F1F700C000002A9ADB
:100A70008FE39CE90197F1F700C0000008950F9300
:100A80001F93CF93DF93EC01062F142F2A9887E84A
:100A900093E10197F1F700C0000081E0D5D1809388
:100AA000130183EF91E00197F1F700C0000082E4A9
:100AB000CBD18093140183EF91E00197F1F700C04F
:100AC000000080911401813409F040C080E0BCD165
:100AD0008093150183EF91E00197F1F700C00000CA
:100AE00080E0B2D18093160183EF91E00197F1F796
:100AF00000C0000080E0A8D18093170183EF91E04F
:100B00000197F1F700C0000080E09ED180931801AA
:100B100083EF91E00197F1F700C0000080E094D1ED
:100B20008093190183EF91E00197F1F700C0000075
:100B300080E08AD180931A0183EF91E00197F1F769
:100B400000C0000080E080D180931B0180911401DF
:100B5000833709F041C080E077D18093150183EF9E
:100B600091E00197F1F700C00000802F6DD18093D4
:100B7000160183EF91E00197F1F700C00000812F8B
:100B800063D18093170183EF91E00197F1F700C0E3
:100B9000000080E059D18093180183EF91E0019724
:100BA000F1F700C0000080E04FD18093190183EF7E
:100BB00091E00197F1F700C0000080E045D18093FB
:100BC0001A0183EF91E00197F1F700C0000080E087
:100BD0003BD180931B010EC010921501109216019B
:100BE00010921701109218011092190110921A0117
:100BF00010921B012A9A87E893E10197F1F700C050
:100C00000000809116012FEF30E0A901481B510927
:100C1000CA0140911701241B310941E048834091EA
:100C20001401413409F088C0E0E8EA83EB83EC83E7
:100C3000ED83BC0168707727759567957595679505
:100C4000A90141705527440F551F440F551F642BB0
:100C5000482F4170642BA90142705527440F551F3E
:100C6000440F551F642BA90144705527440F551F8D
:100C7000440F551F642BA90148705527440F551F79
:100C8000440F551F642BA90140715527440F551F70
:100C9000440F551F642BA90140725527440F551F5F
:100CA000440F551F642B6E83A9014078552736E009
:100CB000559547953A95E1F726FB222720F9242BF5
:100CC000AC0142705527440F551F242BAC014470D2
:100CD0005527440F551F242B2F8330911201383C88
:100CE000A8F484FF02C0198206C086FF03C020EF6B
:100CF000298301C0E98385FF03C02981215F04C0E6
:100D000087FD0DC02981285F298309C0382F307FD6
:100D1000322B3F8328E829832EED2093120180FF98
:100D20008BC088719927489709F086C0809112017D
:100D30008F5F8093120180C0433709F074C04091E7
:100D400018014A83409119014B8340911A014C8349
:100D500040911B014D8384FF02C0198206C086FFAB
:100D600002C040EF01C040E8498385FF03C04981CC
:100D7000415F04C087FD03C04981485F4983BC01CE
:100D8000687077277595679575956795A901417086
:100D90005527440F551F440F551F642B482F417092
:100DA000642BA90142705527440F551F440F551F4E
:100DB000642BA90144705527440F551F440F551F3C
:100DC000642BA90148705527440F551F440F551F28
:100DD000642BA90140715527440F551F440F551F1F
:100DE000642BA90140725527440F551F440F551F0E
:100DF000642B6E83A9014078552706E055954795E9
:100E00000A95E1F726FB222720F9242BAC0142703A
:100E10005527440F551F242B84709927880F991F3D
:100E2000282B2F8309C088E8898380E88A838B83F5
:100E30008C838D831E821F82DF91CF911F910F9132
:100E400008958FE78CBD08958EBD0DB407FEFDCFCC
:100E50008EB50895CF93C62F2091300124FF07C08F
:100E60002091310138E823272093310103C02AE57E
:100E700020933001DC01E2E3F1E08C2F8E0F9D9195
:100E800091938E13FCCF6C2F82E391E0A3DBCC5FB8
:100E9000C0933001CF910895CF93DF9360914101CA
:100EA000635067FDCFC080913E01CCE0D0E0C81B0D
:100EB000D109CB5BDE4F80913D018D3209F0AEC090
:100EC000683009F0BDC083EC809325018AE58093EA
:100ED000020110921C018881807621F0CE0129D177
:100EE0009C0184C09A8110922E018981811107C0D2
:100EF00010922F018EE291E022E030E073C0853045
:100F000019F4909342016AC0863009F050C08B8179
:100F1000813049F48FE395E09093400180933F0145
:100F200022E130E040C0823049F48DE195E09093B9
:100F3000400180933F0122E230E035C08330D9F494
:100F4000911109C08DE695E09093400180933F0197
:100F500024E030E028C0913019F48FE595E004C01A
:100F60009230F9F481E595E09093400180933F0140
:100F70002EE030E018C0813249F48FE295E0909382
:100F8000400180933F0129E030E00DC0823249F4F6
:100F900084E390E09093400180933F0129EE34E098
:100FA00002C020E030E080E480931C011FC0883044
:100FB00069F0893019F49093440110C08A3049F0E7
:100FC0008B3061F48BE48093310108C084E491E0BC
:100FD00002C08EE291E021E030E004C08EE291E0B8
:100FE00020E030E09093400180933F012F3F8FEF4E
:100FF000380749F4888187FF02C02E813F8180E84D
:1010000080931C0106C08E819F818217930708F48C
:101010009C01309301012093000112C080911C01BA
:1010200087FF0EC0CE01B9D08F3F21F48EE18093AF
:10103000020106C0882321F01092010110920001E4
:10104000109241018091020184FF59C080910001FA
:10105000909101018F3F2FEF920709F450C0BC011E
:101060008930910510F068E070E0861B970B909333
:101070000101809300018091250198E889278093E0
:101080002501C62F662361F180913F0190914001B7
:1010900020911C0126FF12C0A6E2B1E025E231E05A
:1010A00020953095280F391F462F4A0FF901EA0F76
:1010B000FB1FE491ED934A13F9CF09C0E6E2F1E09A
:1010C000DC01262F2E0F3D9131932E13FCCF01967C
:1010D0002FEF2C0F820F911D9093400180933F01C1
:1010E0006C2F86E291E076DACC5FCC3031F08FEF76
:1010F0009FEF9093010180930001C093020184E16E
:1011000099B1947131F48150D9F710924201109243
:101110003C01DF91CF910895E9E6F0E080818260A3
:101120008083E89A8BE4809331018AE580933001D3
:101130000895FC0180818076803261F52181213023
:10114000F9F48381813049F48CE591E0909340017A
:1011500080933F0188E090E008958330D9F4828144
:10116000823019F488E091E004C0833099F483E080
:1011700091E09093400180933F0185E090E00895D5
:1011800081E090E0293011F080E090E09195819528
:101190009109089580E090E00895FC0180818530F8
:1011A00039F48281811101C08FEF80930D0150C00D
:1011B0008630A1F08A30C1F48181813051F482817E
:1011C000813011F4F19A44C0833009F041C0F198A4
:1011D0003FC08230E9F58281813011F4F09A38C045
:1011E0008330B1F5F09834C08C3071F4F298F098F7
:1011F000F1981092640110925B0182E090E090936C
:1012000011018093100112C0813011F5643021F476
:101210008181809309011CC08281813061F4238126
:10122000848190E0982F8827820F911D90930F0161
:1012300080930E010DC0823059F42381848190E0A7
:10124000982F8827820F911D909311018093100190
:1012500081E008951F920F920FB60F9211248F9381
:10126000EF93FF9310926401EFE6F0E080818D7FB1
:101270008083FF91EF918F910F900FBE0F901F9081
:1012800018951F920F920FB60F9211248F93EF9320
:10129000FF9310925B01EFE6F0E080818B7F80830B
:1012A000FF91EF918F910F900FBE0F901F901895A7
:1012B0008FE284B984E085B918B817B88BEE8BB982
:1012C00084E18AB980E18AB9549A2FE78FE492E1E8
:1012D000215080409040E1F700C0000054981CDF8E
:1012E00080918100856080938100ABDD8FDA7894F6
:1012F000CBE0DFEFF09B1BC080916F00826080939A
:101300006F00209184003091850040911001509130
:101310001101C49FC001C59F900D1124820F931F1E
:101320009093890080938800D0936401F098F19B9A
:101330001DC080916F00846080936F0020918400B5
:101340003091850040910E0150910F01C49FC00162
:10135000C59F900D1124820F931F90938B00809353
:101360008A0080910D0180935B01F19895DD409199
:101370005B018091640161E0811101C060E08CE556
:1013800091E07DDBACE5B1E0EDE1F1E091918D9193
:101390009813F39A21E0E532F207C1F7F39BAACF45
:1013A0008091300184FD02C077DDFACF68E08CE5E2
:1013B00091E050DDADE1B1E0ECE5F1E081918D939C
:1013C00081E0E436F807D1F7F39894CFF894FFCF93
:1013D000FFFF5A03FFFF02FF020101FFFFFF0100B1
:0213E00001000A
:00000001FF
